{"abi":[{"type":"function","name":"MAX_BATCH_SIZE","inputs":[],"outputs":[{"name":"","type":"uint256","internalType":"uint256"}],"stateMutability":"view"},{"type":"function","name":"MAX_TAG_LENGTH","inputs":[],"outputs":[{"name":"","type":"uint256","internalType":"uint256"}],"stateMutability":"view"},{"type":"function","name":"getUserPong","inputs":[{"name":"user","type":"address","internalType":"address"},{"name":"index","type":"uint256","internalType":"uint256"}],"outputs":[{"name":"","type":"tuple","internalType":"struct Ping3.Pong","components":[{"name":"latitude","type":"int32","internalType":"int32"},{"name":"longitude","type":"int32","internalType":"int32"},{"name":"timestamp","type":"uint64","internalType":"uint64"},{"name":"tag","type":"string","internalType":"string"}]}],"stateMutability":"view"},{"type":"function","name":"getUserPongCount","inputs":[{"name":"user","type":"address","internalType":"address"}],"outputs":[{"name":"","type":"uint256","internalType":"uint256"}],"stateMutability":"view"},{"type":"function","name":"getUserPongsInRange","inputs":[{"name":"user","type":"address","internalType":"address"},{"name":"start","type":"uint256","internalType":"uint256"},{"name":"end","type":"uint256","internalType":"uint256"}],"outputs":[{"name":"","type":"tuple[]","internalType":"struct Ping3.Pong[]","components":[{"name":"latitude","type":"int32","internalType":"int32"},{"name":"longitude","type":"int32","internalType":"int32"},{"name":"timestamp","type":"uint64","internalType":"uint64"},{"name":"tag","type":"string","internalType":"string"}]}],"stateMutability":"view"},{"type":"function","name":"hasPong","inputs":[{"name":"user","type":"address","internalType":"address"},{"name":"latitude","type":"int32","internalType":"int32"},{"name":"longitude","type":"int32","internalType":"int32"},{"name":"timestamp","type":"uint64","internalType":"uint64"},{"name":"tag","type":"string","internalType":"string"}],"outputs":[{"name":"","type":"bool","internalType":"bool"}],"stateMutability":"view"},{"type":"function","name":"hasPongHash","inputs":[{"name":"pongHash","type":"bytes32","internalType":"bytes32"}],"outputs":[{"name":"","type":"bool","internalType":"bool"}],"stateMutability":"view"},{"type":"function","name":"history","inputs":[{"name":"","type":"address","internalType":"address"},{"name":"","type":"uint256","internalType":"uint256"}],"outputs":[{"name":"latitude","type":"int32","internalType":"int32"},{"name":"longitude","type":"int32","internalType":"int32"},{"name":"timestamp","type":"uint64","internalType":"uint64"},{"name":"tag","type":"string","internalType":"string"}],"stateMutability":"view"},{"type":"function","name":"nonces","inputs":[{"name":"","type":"address","internalType":"address"}],"outputs":[{"name":"","type":"uint256","internalType":"uint256"}],"stateMutability":"view"},{"type":"function","name":"pongExists","inputs":[{"name":"","type":"bytes32","internalType":"bytes32"}],"outputs":[{"name":"","type":"bool","internalType":"bool"}],"stateMutability":"view"},{"type":"function","name":"tagLocation","inputs":[{"name":"latitude","type":"int32","internalType":"int32"},{"name":"longitude","type":"int32","internalType":"int32"},{"name":"tag","type":"string","internalType":"string"}],"outputs":[],"stateMutability":"nonpayable"},{"type":"function","name":"tagLocationWithSig","inputs":[{"name":"latitude","type":"int32","internalType":"int32"},{"name":"longitude","type":"int32","internalType":"int32"},{"name":"timestamp","type":"uint64","internalType":"uint64"},{"name":"tag","type":"string","internalType":"string"},{"name":"signer","type":"address","internalType":"address"},{"name":"sig","type":"bytes","internalType":"bytes"}],"outputs":[],"stateMutability":"nonpayable"},{"type":"function","name":"tagManyLocations","inputs":[{"name":"latitudes","type":"int32[]","internalType":"int32[]"},{"name":"longitudes","type":"int32[]","internalType":"int32[]"},{"name":"tags","type":"string[]","internalType":"string[]"}],"outputs":[],"stateMutability":"nonpayable"},{"type":"function","name":"tagManyLocationsWithSig","inputs":[{"name":"latitudes","type":"int32[]","internalType":"int32[]"},{"name":"longitudes","type":"int32[]","internalType":"int32[]"},{"name":"timestamps","type":"uint64[]","internalType":"uint64[]"},{"name":"tags","type":"string[]","internalType":"string[]"},{"name":"signer","type":"address","internalType":"address"},{"name":"sig","type":"bytes","internalType":"bytes"}],"outputs":[],"stateMutability":"nonpayable"},{"type":"event","name":"LocationTagged","inputs":[{"name":"reporter","type":"address","indexed":true,"internalType":"address"},{"name":"latitude","type":"int32","indexed":false,"internalType":"int32"},{"name":"longitude","type":"int32","indexed":false,"internalType":"int32"},{"name":"timestamp","type":"uint64","indexed":false,"internalType":"uint64"},{"name":"tag","type":"string","indexed":false,"internalType":"string"}],"anonymous":false}],"bytecode":{"object":"0x60808060405234601557611bcf908161001a8239f35b5f80fdfe60806040526004361015610011575f80fd5b5f3560e01c806316327212146100ef57806317feea83146100ea57806352d476d1146100e55780637718f4ec146100e05780637d5fe1b4146100db5780637ecebe00146100d657806397f663be146100d1578063a8e0bd71146100cc578063b5c59dca146100b8578063b9ab73ec146100c7578063c6de1093146100c2578063cfdbf254146100bd578063dabc9248146100b85763f50496f4146100b3575f80fd5b610e5c565b610be6565b610e41565b610d38565b610c0f565b610b2a565b6108e6565b6108ae565b610877565b6107fa565b610547565b6103c8565b610128565b9181601f84011215610124578235916001600160401b038311610124576020808501948460051b01011161012457565b5f80fd5b34610124576060366003190112610124576004356001600160401b038111610124576101589036906004016100f4565b906024356001600160401b038111610124576101789036906004016100f4565b906044356001600160401b038111610124576101989036906004016100f4565b936001600160401b0342169284871480610387575b6101b690610e78565b6101c36064881115610ec4565b5f5b8781106101ce57005b6101d9818985610f08565b6101e290610f18565b6101ed828885610f08565b6101f690610f18565b6101ff9161188e565b61020a818886610f22565b6101009150111561021a90610f63565b610225818985610f08565b61022e90610f18565b610239828885610f08565b61024290610f18565b8661024e848b89610f22565b369061025992610fb4565b9133936102659461196a565b610277815f52600260205260405f2090565b5460ff161561028590610ff9565b610290828a86610f08565b61029990610f18565b6102a4838986610f08565b6102ad90610f18565b6102b8848b89610f22565b90916102c2610fa5565b60039490940b845260030b60208401526001600160401b038916604084015236906102ec92610fb4565b6060820152335f9081526020819052604090209061030991611157565b61031b905f52600260205260405f2090565b805460ff19166001179055610331818985610f08565b61033a90610f18565b610345828885610f08565b61034e90610f18565b9061035a838a88610f22565b916040519283928a339661036e9486611219565b035f516020611b7a5f395f51905f5291a26001016101c5565b508686146101ad565b8060030b0361012457565b9181601f84011215610124578235916001600160401b038311610124576020838186019501011161012457565b34610124576060366003190112610124576004356103e581610390565b6024356103f181610390565b6044356001600160401b038111610124575f516020611b7a5f395f51905f529161042261050592369060040161039b565b61042f838795939561188e565b61043d610100821115610f63565b6001600160401b034216936104f76104ea61046561045c368686610fb4565b88888c3361196a565b805f52600260205261048b61048661048260405f2060ff90541690565b1590565b610ff9565b6104dc610496610fa5565b60038c810b825289900b60208201526001600160401b038a1660408201526104bf368888610fb4565b6060820152335f908152602081905260409020611157565b611157565b5f52600260205260405f2090565b805460ff19166001179055565b604051948594339886611219565b0390a2005b600435906001600160a01b038216820361012457565b608435906001600160a01b038216820361012457565b6001600160401b0381160361012457565b346101245760a03660031901126101245761056061050a565b60243561056c81610390565b6044359061057982610390565b6064359261058684610536565b608435926001600160401b0384116101245761061460446106259461063e976105b661062c98369060040161039b565b91908291604051978895602087019a6001600160601b03199060601b168b5260e01b603487015260e01b60388601526001600160401b0360c01b9060c01b16603c8501528484013781015f838201520301601f1981018352826106e0565b5190205f52600260205260405f2090565b5460ff1690565b60405190151581529081906020820190565b0390f35b634e487b7160e01b5f52603260045260245ffd5b805482101561066f575f5260205f209060011b01905f90565b610642565b90600182811c921680156106a2575b602083101461068e57565b634e487b7160e01b5f52602260045260245ffd5b91607f1691610683565b634e487b7160e01b5f52604160045260245ffd5b608081019081106001600160401b038211176106db57604052565b6106ac565b90601f801991011681019081106001600160401b038211176106db57604052565b9060405191825f82549261071484610674565b808452936001811690811561077f575060011461073b575b50610739925003836106e0565b565b90505f9291925260205f20905f915b818310610763575050906020610739928201015f61072c565b602091935080600191548385890101520191019091849261074a565b90506020925061073994915060ff191682840152151560051b8201015f61072c565b805180835260209291819084018484015e5f828201840152601f01601f1916010190565b906107f794936080936001600160401b039260030b845260030b602084015216604082015281606082015201906107a1565b90565b346101245760403660031901126101245761081361050a565b6001600160a01b03165f9081526020819052604090208054602435908110156101245761083f91610656565b5061084e600182549201610701565b9061063e60405192826001600160401b03859460401c16908060201c60030b9060030b856107c5565b34610124576020366003190112610124576001600160a01b0361089861050a565b165f525f602052602060405f2054604051908152f35b34610124576020366003190112610124576001600160a01b036108cf61050a565b165f526001602052602060405f2054604051908152f35b346101245760c03660031901126101245760043561090381610390565b60243561090f81610390565b6044359061091c82610536565b6064356001600160401b0381116101245761093b90369060040161039b565b9390610945610520565b9460a435916001600160401b0383116101245785610acd6104ea610a086109cd610a028c6109fa5f516020611b7a5f395f51905f529d8a6109f28f8f6105059f908e926109996109e493369060040161039b565b9b90996109a6838561188e565b6109b4610100891115610f63565b6001600160a01b03165f90815260016020526040902090565b54916040519687956020870199469430948c61124b565b03601f1981018352826106e0565b5190206119db565b923691610fb4565b90611aa3565b6001600160a01b03808c169b91610a2191168c146112a1565b6001600160a01b0381165f908152600160205260409020610a428154611301565b90556104dc610a5e610a55368989610fb4565b868c8c8661196a565b91610a7a610486610482610625865f52600260205260405f2090565b6104d7610a85610fa5565b60038c810b82528d900b60208201526001600160401b038816604082015291610aaf368b8b610fb4565b60608401526001600160a01b03165f90815260208190526040902090565b60405195869586611219565b90608060606107f793805160030b8452602081015160030b60208501526001600160401b03604082015116604085015201519181606082015201906107a1565b9060206107f7928181520190610ad9565b3461012457604036600319011261012457610b4361050a565b60243590610b4f611314565b5060018060a01b031690815f525f60205260405f2054811015610b9857610b86610b8c9161063e935f525f60205260405f20610656565b50611338565b60405191829182610b19565b60405162461bcd60e51b815260206004820152601460248201527350696e67333a206f7574206f6620626f756e647360601b6044820152606490fd5b60209060031901126101245760043590565b3461012457610bf436610bd4565b5f526002602052602060ff60405f2054166040519015158152f35b346101245760c0366003190112610124576004356001600160401b03811161012457610c3f9036906004016100f4565b6024356001600160401b03811161012457610c5e9036906004016100f4565b6044939193356001600160401b03811161012457610c809036906004016100f4565b906064356001600160401b03811161012457610ca09036906004016100f4565b929091610cab610520565b9460a435986001600160401b038a1161012457610ccf610cd79a369060040161039b565b9990986114f3565b005b602081016020825282518091526040820191602060408360051b8301019401925f915b838310610d0b57505050505090565b9091929394602080610d29600193603f198682030187528951610ad9565b97019301930191939290610cfc565b3461012457606036600319011261012457610d5161050a565b6044356024358082101580610e20575b15610de457610d78610d738284611807565b61182b565b92815b838110610d90576040518061063e8782610cd9565b80610ddd610db8600193610db38660018060a01b03165f525f60205260405f2090565b610656565b50610dcc610dc68785611807565b91611338565b610dd6828a61187a565b528761187a565b5001610d7b565b60405162461bcd60e51b815260206004820152601460248201527350696e67333a20696e76616c69642072616e676560601b6044820152606490fd5b506001600160a01b0383165f90815260208190526040902054821115610d61565b34610124575f36600319011261012457602060405160648152f35b34610124575f3660031901126101245760206040516101008152f35b15610e7f57565b60405162461bcd60e51b815260206004820152601c60248201527f50696e67333a206172726179206c656e677468206d69736d61746368000000006044820152606490fd5b15610ecb57565b60405162461bcd60e51b815260206004820152601560248201527450696e67333a20746f6f206d616e7920706f6e677360581b6044820152606490fd5b919081101561066f5760051b0190565b356107f781610390565b919081101561066f5760051b81013590601e19813603018212156101245701908135916001600160401b038311610124576020018236038113610124579190565b15610f6a57565b60405162461bcd60e51b815260206004820152601360248201527250696e67333a2074616720746f6f206c6f6e6760681b6044820152606490fd5b604051906107396080836106e0565b9291926001600160401b0382116106db5760405191610fdd601f8201601f1916602001846106e0565b829481845281830111610124578281602093845f960137010152565b1561100057565b60405162461bcd60e51b815260206004820152601560248201527450696e67333a206475706c696361746520706f6e6760581b6044820152606490fd5b601f821161104a57505050565b5f5260205f20906020601f840160051c83019310611082575b601f0160051c01905b818110611077575050565b5f815560010161106c565b9091508190611063565b91909182516001600160401b0381116106db576110b3816110ad8454610674565b8461103d565b6020601f82116001146110f25781906110e39394955f926110e7575b50508160011b915f199060031b1c19161790565b9055565b015190505f806110cf565b601f19821690611105845f5260205f2090565b915f5b81811061113f57509583600195969710611127575b505050811b019055565b01515f1960f88460031b161c191690555f808061111d565b9192602060018192868b015181550194019201611108565b8054680100000000000000008110156106db5761117991600182018155610656565b6111e657815181546020808501516040808701516fffffffffffffffffffffffffffffffff1990941663ffffffff9095169490941767ffffffff000000009190921b1617911b6fffffffffffffffff0000000000000000161781556107399160019060600151910161108c565b634e487b7160e01b5f525f60045260245ffd5b908060209392818452848401375f828201840152601f01601f1916010190565b906107f795936080936001600160401b039260030b845260030b602084015216604082015281606082015201916111f9565b92859491926064999798969360e01b855260e01b60048501526001600160401b0360c01b9060c01b166008840152601083013701926001600160601b03199060601b166010840152602483015260448201520190565b156112a857565b60405162461bcd60e51b815260206004820152601860248201527f50696e67333a20696e76616c6964207369676e617475726500000000000000006044820152606490fd5b634e487b7160e01b5f52601160045260245ffd5b5f19811461130f5760010190565b6112ed565b60405190611321826106c0565b606080835f81525f60208201525f60408201520152565b90604051611345816106c0565b6060611379600183956001600160401b0381548060030b87528060201c60030b602088015260401c16604086015201610701565b910152565b916020908281520191905f5b8181106113975750505090565b90919260208060019286356113ab81610390565b60030b815201940192910161138a565b90602083828152019060208160051b85010193835f915b8383106113e25750505050505090565b909192939495601f198282030186528635601e198436030181121561012457830190602082359201916001600160401b0381116101245780360383136101245761143260209283926001956111f9565b9801960194930191906113d2565b989b9a99979593611463602094926114709499979960e08d5260e08d019161137e565b918a8303858c015261137e565b87810360408901528281520193905f5b8181106114bf57505050826114b6926114a4928760c09897960360608801526113bb565b6001600160a01b039097166080840152565b60a08201520152565b9091946020806001926001600160401b0389356114db81610536565b168152019601929101611480565b356107f781610536565b919295949697989a99909a868c14806117fe575b806117f5575b85888a8f87908f8f908d906115228d99610e78565b61152f6064851115610ec4565b5f5b8481106117965750946115849a9997946109f2946109fa98946109e49461156c610a029d9a60018060a01b03165f52600160205260405f2090565b5494604051998a9860208a019c8d9646983098611440565b6001600160a01b038981169b9161159d91168c146112a1565b6001600160a01b0389165f9081526001602052604090206115be8154611301565b90555f5b8181106115d757505050505050505050509050565b898180808c8c8c6115e9848a8c610f08565b6115f290610f18565b956115fd918c610f08565b61160690610f18565b92611611918c610f08565b61161a906114e9565b92611625918c610f22565b369061163092610fb4565b9261163a9461196a565b61164c815f52600260205260405f2090565b5460ff161561165a90610ff9565b8180808c8c8c61166b848a8c610f08565b61167490610f18565b9561167f918c610f08565b61168890610f18565b93611693918c610f08565b61169c906114e9565b916116a7918c610f22565b9190926116b2610fa5565b60039590950b855260030b60208501526001600160401b0316604084015236906116db92610fb4565b60608201526001600160a01b038c165f9081526020819052604090209061170191611157565b611713905f52600260205260405f2090565b805460ff191660011790558b8180808c8c8c611730848a8c610f08565b61173990610f18565b93611744918c610f08565b61174d90610f18565b93611758918c610f08565b611761906114e9565b9361176c918c610f22565b9060405194859461177d9486611219565b035f516020611b7a5f395f51905f5291a26001016115c2565b9750505061010093506117d36001976117cd6117c2896117e2996117c76117c283809a6117d99c610f08565b610f18565b94610f08565b9061188e565b8c610f22565b90501115610f63565b0185888a8f87908f8f908d908c98611531565b508b891461150d565b50878c14611507565b9190820391821161130f57565b6001600160401b0381116106db5760051b60200190565b9061183582611814565b61184260405191826106e0565b8281528092611853601f1991611814565b01905f5b82811061186357505050565b60209061186e611314565b82828501015201611857565b805182101561066f5760209160051b010190565b60030b63055d4a7f19811215908161195b575b50156119165760030b630aba94ff198112159081611907575b50156118c257565b60405162461bcd60e51b815260206004820152601860248201527f50696e67333a20696e76616c6964206c6f6e67697475646500000000000000006044820152606490fd5b630aba9500915013155f6118ba565b60405162461bcd60e51b815260206004820152601760248201527f50696e67333a20696e76616c6964206c617469747564650000000000000000006044820152606490fd5b63055d4a80915013155f6118a1565b939060206044926119d59495604051968794848601996001600160601b03199060601b168a5260e01b603486015260e01b60388501526001600160401b0360c01b9060c01b16603c8401528051918291018484015e81015f838201520301601f1981018352826106e0565b51902090565b60405160208101917f19457468657265756d205369676e6564204d6573736167653a0a3332000000008352603c820152603c81526119d5605c826106e0565b15611a2157565b60405162461bcd60e51b815260206004820152601060248201526f50696e67333a20696e76616c6964207360801b6044820152606490fd5b15611a6057565b60405162461bcd60e51b815260206004820152601060248201526f2834b733999d1034b73b30b634b2103b60811b6044820152606490fd5b6040513d5f823e3d90fd5b6041825103611b3457815f91611b126020809501519260606040820151910151851a93611ad860018060ff1b03831115611a1a565b601b85148015611b2a575b611aec90611a59565b604051948594859094939260ff6060936080840197845216602083015260408201520152565b838052039060015afa15611b25575f5190565b611a98565b50601c8514611ae3565b60405162461bcd60e51b815260206004820152601960248201527f50696e67333a20696e76616c696420736967206c656e677468000000000000006044820152606490fdfe424484d97de0917af35907b4f61ddb12208169bd5ee6df6dbc6c57c34eed030ea2646970667358221220e05baf945c9a2a169edd0fe589cfef2c7509c943b35d8c8212bec0ab4fa0a27c64736f6c634300081b0033","linkReferences":{}},"methodIdentifiers":{"MAX_BATCH_SIZE()":"cfdbf254","MAX_TAG_LENGTH()":"f50496f4","getUserPong(address,uint256)":"a8e0bd71","getUserPongCount(address)":"7d5fe1b4","getUserPongsInRange(address,uint256,uint256)":"c6de1093","hasPong(address,int32,int32,uint64,string)":"52d476d1","hasPongHash(bytes32)":"b5c59dca","history(address,uint256)":"7718f4ec","nonces(address)":"7ecebe00","pongExists(bytes32)":"dabc9248","tagLocation(int32,int32,string)":"17feea83","tagLocationWithSig(int32,int32,uint64,string,address,bytes)":"97f663be","tagManyLocations(int32[],int32[],string[])":"16327212","tagManyLocationsWithSig(int32[],int32[],uint64[],string[],address,bytes)":"b9ab73ec"},"id":19}